:100000000C94DA000C9402010C9402010C9402018D
:100010000C9402010C9402010C9402010C94020154
:100020000C9402010C9402010C9402010C94020144
:100030000C9402010C9402010C9402010C94020134
:100040000C9451040C9402010C941F040C94F903B9
:100050000C9402010C9402010C9402010C94020114
:100060000C9402010C94020100407A10F35A00A093
:10007000724E18090010A5D4E80000E87648170071
:1000800000E40B54020000CA9A3B000000E1F505B1
:10009000000080969800000040420F000000A086FB
:1000A00001000000102700000000E803000000002D
:1000B0006400000000000A000000000001000000D1
:1000C00000002C76D888DC674F0823DFC1DFAE59EB
:1000D000E1B1B796E5E3E453C63AE651997696E87E
:1000E000E6C28426EB898C9B62ED407C6FFCEFBC02
:1000F0009C9F40F2BAA56FA5F490055A2AF75C932D
:100100006B6CF9676DC11BFCE0E40D47FEF520E662
:10011000B500D0ED902E0300943577050080841E45
:10012000080000204E0A000000C80C333333330FA0
:10013000986E12831141EF8D2114893BE65516CF3D
:10014000FEE6DB18D1844B381BF77C1D901DA4BB49
:10015000E424203284725E228100C9F124ECA1E5FE
:100160003D2700000000240027002A0000000000B6
:10017000250028002B0004040404040404040202E3
:100180000202020203030303030301020408102016
:100190004080010204081020010204081020000021
:1001A0000008000201000003040700000000000036
:1001B00000009B0411241FBECFEFD8E0DEBFCDBFEF
:1001C00022E0ACE4B1E001C01D92A435B207E1F732
:1001D00011E0A0E0B1E0EEEAF8E102C005900D9276
:1001E000AC34B107D9F710E0CAEDD0E004C02197D4
:1001F000FE010E944A0CC93DD107C9F70E94DA04EA
:100200000C94550C0C940000EFE6F1E0A089B18944
:1002100082E08C93A485B5851C92A685B7858FEC6A
:100220008C93108EA489B58986E08C93A289B389BA
:100230008C9180618C93A289B3898C9188608C9316
:10024000A289B3898C9180688C930288F389E02D10
:1002500080818F7D80830895CF92DF92EF92FF920D
:100260000F931F93CF93DF936C017A018B01C0E052
:10027000D0E0CE15DF0589F0D8016D918D01D60152
:10028000ED91FC910190F081E02DC6010995892B3B
:1002900011F47E0102C02196ECCFC701DF91CF910E
:1002A0001F910F91FF90EF90DF90CF9008950895E8
:1002B00080E090E00895FC01538D448D252F30E0BF
:1002C000842F90E0821B930B541710F0CF96089563
:1002D00001970895FC01918D828D981761F0828DB0
:1002E000DF01A80FB11D5D968C91928D9F5F9F736A
:1002F000928F90E008958FEF9FEF0895FC01918D0C
:10030000828D981731F0828DE80FF11D858D90E078
:1003100008958FEF9FEF0895FC01918D228D892F15
:1003200090E0805C9F4F821B91098F7399270895FD
:100330008FE691E00E948C0121E0892B09F420E0F6
:10034000822F0895FC01848DDF01A80FB11DA35AEF
:10035000BF4F2C91848D90E001968F739927848FE5
:10036000A689B7892C93A089B1898C9180648C93DC
:10037000938D848D981306C00288F389E02D8081C7
:100380008F7D80830895EF92FF920F931F93CF93F9
:10039000DF93EC0181E0888F9B8D8C8D981305C0D5
:1003A000E889F989808185FD24C0F62E0B8D10E047
:1003B0000F5F1F4F0F731127E02E8C8DE8120CC0BA
:1003C0000FB607FCFACFE889F989808185FFF5CF60
:1003D000CE010E94A201F1CF8B8DFE01E80FF11D2D
:1003E000E35AFF4FF0820B8FEA89FB89808180629C
:1003F00007C0EE89FF896083E889F989808180647C
:10040000808381E090E0DF91CF911F910F91FF9069
:10041000EF900895CF93DF93EC01888D8823C9F086
:10042000EA89FB89808185FD05C0A889B9898C91FD
:1004300086FD0FC00FB607FCF5CF808185FFF2CF98
:10044000A889B9898C9185FFEDCFCE010E94A201C8
:10045000E7CFDF91CF91089580E090E0892B29F0DC
:100460000E94980181110C940000089590E0FC0115
:10047000E256FE4F3491FC01E657FE4F2491FC01F9
:10048000EA58FE4FE491EE2309F43BC0332339F1DF
:10049000333091F038F43130A9F0323001F584B5C1
:1004A0008F7D12C0373091F03830A1F03430B9F47C
:1004B000809180008F7D03C0809180008F77809332
:1004C00080000DC084B58F7784BD09C08091B000D5
:1004D0008F7703C08091B0008F7D8093B000F0E0F3
:1004E000EE0FFF1FE459FE4FA591B4918FB7F8941A
:1004F000EC91611103C020952E2301C02E2B2C936B
:100500008FBF0895CF93DF9390E0FC01E657FE4F35
:100510002491FC01EA58FE4F8491882361F190E018
:10052000880F991FFC01EE59FE4FC591D491FC0133
:10053000E459FE4FA591B491611109C09FB7F89499
:100540008881209582238883EC912E230BC0623012
:1005500061F49FB7F8943881822F80958323888334
:10056000EC912E2B2C939FBF06C08FB7F894E88197
:100570002E2B28838FBFDF91CF9108958E3008F006
:100580008E5087702091000190E4299F90011124E2
:10059000822B80937C0080917A00806480937A0023
:1005A00080917A0086FDFCCF8091780020917900BF
:1005B00090E0922B08953FB7F89480915301909169
:1005C0005401A0915501B091560126B5A89B05C0D4
:1005D0002F3F19F00196A11DB11D3FBFBA2FA92FC2
:1005E000982F8827820F911DA11DB11DBC01CD013F
:1005F00042E0660F771F881F991F4A95D1F708952B
:100600008F929F92AF92BF92CF92DF92EF92FF9222
:100610006B017C010E94DB024B015C01C114D1041F
:10062000E104F104F1F00E94DB02DC01CB01881946
:100630009909AA09BB09883E9340A105B10570F349
:1006400021E0C21AD108E108F10888EE880E83E0A3
:10065000981EA11CB11CC114D104E104F10419F7C6
:10066000DDCFFF90EF90DF90CF90BF90AF909F9045
:100670008F9008952FB7F89460914F0170915001B9
:1006800080915101909152012FBF089561E08AE05D
:100690000E94360264EF71E080E090E00C94000369
:1006A00061E088E00E94360264EF71E080E090E053
:1006B0000C94000360E087E00E94360264EF71E072
:1006C00080E090E00C94000361E087E00E94360235
:1006D00064EF71E080E090E00C9400031F93CF93EF
:1006E000DF93182F8BE0869FE001879FD00D1124A8
:1006F000CC50DE4FD0934D01C0934C0161E0812F6F
:100700000E943602C230D10538F0CC0FDD1FCC0F6D
:10071000DD1F25972197F1F760E0812F0E943602B7
:1007200064E170E080E090E0DF91CF911F910C9444
:1007300000030E94500C6115710579F0FB010190D6
:100740000020E9F73197AF01461B570BDC01ED9113
:10075000FC910280F381E02D099480E090E00895FF
:100760004F925F926F927F92EF92FF920F931F933F
:10077000CF93DF93CDB7DEB7A1970FB6F894DEBF66
:100780000FBECDBF7C01FA01CB0119A2223008F4C3
:100790002AE08E010F5D1F4F422E512C612C712CCF
:1007A000BF01A30192010E94000CF901CA0101508E
:1007B00011096A3014F4605D01C0695CD8016C9362
:1007C000232B242B252B61F7B801C7010E949B0323
:1007D000A1960FB6F894DEBF0FBECDBFDF91CF91CB
:1007E0001F910F91FF90EF907F906F905F904F90CF
:1007F00008951F920F920FB60F9211242F933F93DB
:100800004F935F936F937F938F939F93AF93BF9318
:10081000EF93FF938FE691E00E94A201FF91EF9189
:10082000BF91AF919F918F917F916F915F914F9108
:100830003F912F910F900FBE0F901F9018951F9210
:100840000F920FB60F9211242F938F939F93EF93D4
:10085000FF93E0917F01F09180018081E09185011B
:10086000F091860182FD12C09081809188018F5F96
:100870008F7320918901821751F0E0918801F0E097
:10088000E159FE4F958F8093880101C08081FF91CF
:10089000EF919F918F912F910F900FBE0F901F900E
:1008A00018951F920F920FB60F9211242F933F931A
:1008B0008F939F93AF93BF9380914F01909150017D
:1008C000A0915101B091520130914E0123E0230FCC
:1008D0002D3720F40196A11DB11D05C026E8230F78
:1008E0000296A11DB11D20934E0180934F0190935C
:1008F0005001A0935101B093520180915301909106
:100900005401A0915501B09156010196A11DB11D50
:100910008093530190935401A0935501B0935601D5
:10092000BF91AF919F918F913F912F910F900FBEEB
:100930000F901F901895EFE6F1E01382128288EE77
:1009400093E0A0E0B0E084839583A683B78389E039
:1009500091E09183808385EC90E09587848784EC97
:1009600090E09787868780EC90E0918B808B81EC7C
:1009700090E0938B828B82EC90E0958B848B86EC5D
:1009800090E0978B868B118E128E138E148EECE076
:10099000F2E016821782108611861286138614865C
:1009A000158616861786108A118A128A138A148A67
:1009B000158A0895CF93DF93CDB7DEB72A970FB688
:1009C000F894DEBF0FBECDBF789484B5826084BD3D
:1009D00084B5816084BD85B5826085BD85B5816043
:1009E00085BD80916E00816080936E0010928100C1
:1009F000809181008260809381008091810081607C
:100A0000809381008091800081608093800080913C
:100A1000B10084608093B1008091B00081608093C8
:100A2000B00080917A00846080937A0080917A008F
:100A3000826080937A0080917A00816080937A004E
:100A400080917A00806880937A001092C1001092A1
:100A500050021092510210925202109253021092C0
:100A60000E0210920F0210921002109211020E94B8
:100A70003A036B017C014B015C0188EB880E8BE033
:100A8000981EA11CB11C0E943A036C157D058E05B1
:100A90009F0528F086169706A806B906A0F78FE6E8
:100AA00091E090934F0280934E020E9404010E94B5
:100AB0003A0360930E0270930F028093100290939A
:100AC000110267E171E080914E0290914F020E9405
:100AD0009B030E943A036B017C014B015C018AE09D
:100AE000880E911CA11CB11C0E943A036C157D0557
:100AF0008E059F0528F086169706A806B906A0F76A
:100B000081E08093220261E089E00E94820261E03C
:100B100088E00E94820261E087E00E94820261E038
:100B20008CE00E94820261E08CE00E94360261E06B
:100B300086E00E94820261E086E00E94360261E067
:100B400088E00E94820261E08AE00E9482020E94A4
:100B5000040168EE73E080E090E00E9400030E94D0
:100B600050030E943A03672B682B692B41F40E94C3
:100B70003A03623071058105910508F41BC10E949A
:100B80003A0360935B0170935C0180935D019093E5
:100B90005E01009157011091580120915901309147
:100BA0005A01601771078207930740F46093570159
:100BB000709358018093590190935A010091570105
:100BC000109158012091590130915A016B017C011B
:100BD000C01AD10AE20AF30A970186010A3F1105F9
:100BE0002105310508F4E6C0609357017093580160
:100BF0008093590190935A0184EF91E0A0E0B0E016
:100C000080931A0290931B02A0931C02B0931D02C2
:100C100010921E0210921F021092200210922102C6
:100C20008091120290911302A0911402B0911502CA
:100C30008093160290931702A0931802B0931902A2
:100C40000E943A036093120270931302809314027D
:100C5000909315020E943A0360930E0270930F0264
:100C600080931002909311020E943A036B017C0161
:100C700069E271E080914E0290914F020E949B03C5
:100C80002AE041E050E060E070E080914E029091F7
:100C90004F020E94B00360E371E080914E02909198
:100CA0004F020E949B032AE0B701A60180914E02E9
:100CB00090914F020E94B00362E371E080914E0276
:100CC00090914F020E949B03809112029091130217
:100CD000A0911402B0911502B701A601481B590B4F
:100CE0006A0B7B0B2AE080914E0290914F020E948A
:100CF000B00362E371E080914E0290914F020E9436
:100D00009B03409112025091130260911402709162
:100D100015028091160290911702A0911802B091CD
:100D20001902481B590B6A0B7B0B2AE080914E027B
:100D300090914F020E94B00364E371E080914E02F3
:100D400090914F020E949B030E943A03AB01BC01A9
:100D50002AE080914E0290914F020E94B0030091D0
:100D60004E0210914F0266E371E0C8010E949B039E
:100D700066E271E0C8010E949B030E943A036B0186
:100D80007C014B015C0185E0880E911CA11CB11C0B
:100D90000E943A036C157D058E059F0508F0A8C1D9
:100DA0000E943A036093120270931302809314021C
:100DB0009093150268EE73E080E090E00E940003DB
:100DC0000E94460368EE73E080E090E00E9400031A
:100DD00060E082E10E948202109200018AE0E82E27
:100DE000F12C9EE6C92ED12C29E7A22EB12C882405
:100DF0008394912C44EB642E712C82E10E94BE02FC
:100E000000916D0110916E0182E10E94BE02800F7F
:100E1000911F90936E0180936D0120916B01309131
:100E20006C012F5F3F4F2A3031052CF430936C0159
:100E300020936B0122C010926C0110926B01B701DC
:100E40000E94220C70936A0160936901809167018E
:100E500090916801680F791F709368016093670132
:100E6000809165019091660101969093660180934F
:100E7000650110926E0110926D0180916501909153
:100E800066010A97ECF18091670190916801B701C2
:100E90000E94220C7093680160936701072E000C7A
:100EA000880B990B0E94070B2DE038EF45E55BE3BB
:100EB0000E94420B8E010F5F1F4F23E047E00E940C
:100EC0007F082091630130916401809167019091C6
:100ED0006801820F931F90936401809363011092C5
:100EE000680110926701109266011092650180916D
:100EF000610190916201019690936201809361017A
:100F000080916101909162010A970CF43FC0809139
:100F1000630190916401B7010E94220C70936401F7
:100F200060936301072E000C880B990B0E94070B3E
:100F30002DE038EF45E55BE30E94420B8E010F5F29
:100F40001F4F23E047E00E947F086DE371E08FE6CA
:100F500091E00E949B03B8018FE691E00E949B0301
:100F600066E271E08FE691E00E949B0310926801B7
:100F7000109267011092660110926501109264014F
:100F80001092630110926201109261018FE691E06C
:100F90000E948C01181619060CF0A7C08FE691E08C
:100FA0000E946A018536910509F46FC0E4F4813628
:100FB000910509F460C064F48B32910509F444C0D2
:100FC0008D9709F092C01092600110925F0128C0C5
:100FD0008236910509F471C08336910509F085C008
:100FE00060E08AE058C08637910509F45DC06CF472
:100FF0008237910509F444C08337910509F075C023
:10100000B0920401A092030170C08837910509F4E1
:101010003FC08A37910509F068C060E088E03BC0B6
:1010200000915F0110916001043011050CF05DC06A
:10103000B80189E090E00E946E030F5F1F4F10938C
:10104000600100935F01ECCF7092600160925F01DC
:1010500000915F0110916001013B110564F0B8013E
:1010600089E090E00E946E03015011091093600125
:1010700000935F01EDCFD0920401C092030135C00F
:10108000D0920401C09203012EC00E945A032DC0C9
:101090000E9450030BC00E94360264EF71E080E0B2
:1010A00090E00E94000302C00E94460364E670E0E4
:1010B00080E090E00E94000318C0809101019091AF
:1010C0000201892B31F490920201809201010E9469
:1010D0005A038091010190910201019731F410921D
:1010E0000201109201010E9464030E942C0285CE2D
:1010F00086169706A806B90608F04ACE51CEEF929A
:101100000F931F93CF93DF93E80147FD02C034E0B4
:1011100001C034E1E42F440FFF0BF7FF03C0F1954A
:10112000E195F109E32E022F2E2FAE010E949F08B8
:10113000CE01DF91CF911F910F91EF9008954F92C3
:101140005F926F927F929F92AF92BF92CF92DF9207
:10115000EF92FF920F931F93CF93DF93CDB7DEB73C
:1011600029970FB6F894DEBF0FBECDBF6A01122FCC
:10117000B02E2BE3201720F0FF24F394F00E02C0D2
:10118000BCE3FB2E0F2D27E0AE014F5F5F4F0E94A7
:101190002D0AAC018981982F9970913031F0E1FCD2
:1011A00006C0E0FE06C090E205C09DE203C09BE2DF
:1011B00001C090E0EE2DE07183FF3CC0911102C0B0
:1011C00083E001C084E0811718F4212F281B01C09F
:1011D00020E0E1110BC0F601822F30E2882319F0E4
:1011E00031938150FBCFC20ED11C20E0992329F00E
:1011F000D6019C93F60131966F01C6010396E2FE7B
:101200000AC03EE4D6013C9341E411964C931197F9
:1012100012963C9306C03EE6F601308341E64183D8
:101220003283FC01322F40E2332309F442C0419360
:101230003150FACF82FF44C0911102C083E001C057
:1012400084E0811718F4212F281B01C020E0E11150
:101250000BC0F601822F30E2882319F031938150C0
:10126000FBCFC20ED11C20E0992329F0D6019C931C
:10127000F60131966F01C6010396E2FE0BC039E418
:10128000D6013C933EE411963C93119736E41296B6
:101290003C9307C039E6F60130833EE6318336E6FB
:1012A0003283FC01322F40E2332319F04193315055
:1012B000FBCFFC01E20FF11D10828EEF9FEFB7C054
:1012C000F1E0911101C0F0E06F2F70E014161506E7
:1012D00024F49A012F5F3F4F02C021E030E0260F37
:1012E000371FBB2029F06B2D70E06F5F7F4F02C06E
:1012F00060E070E0260F371F612F70E02617370778
:101300001CF4121B212F01C020E03E2D387159F42E
:10131000D601322F60E2332319F06D933150FBCFA9
:10132000C20ED11C20E0FF2331F0D6019C93B60100
:101330006F5F7F4F6B01E1110BC0F601922F30E31D
:10134000992319F031939150FBCFC20ED11C20E0AC
:101350009F2D940F3A81782F7071A72E84FF03C0C0
:10136000313309F49150191624F4993018F098E0AB
:1013700001C091E0E42F852F57FF02C0E0E080E03C
:101380006E2F782FE0E0F0E0AEE29A2E3A01691A73
:1013900071082A01461A570A0B2D10E01195019584
:1013A00011096F3F8FEF780729F4D6019C92C6018F
:1013B00001966C014617570784F0661677066CF4A1
:1013C0007F01E40CF51CA1E0B0E0AC0FBD1FEA0EFC
:1013D000FB1ED7011196BC9002C090E3B92E61505C
:1013E00071093196C60101967C016017710724F0DE
:1013F000D601BC926C01D5CF6417750741F4363322
:1014000020F4353321F4A11002C081E3B82EF60197
:10141000B082F701822F90E2882319F091938150D6
:10142000FBCFF701E20FF11D108280E090E02996DA
:101430000FB6F894DEBF0FBECDBFDF91CF911F91E5
:101440000F91FF90EF90DF90CF90BF90AF909F9063
:101450007F906F905F904F900895283008F027E0BC
:101460003327DA01990F311D87FD916000966105E0
:10147000710539F432602E5F3D9330E32A95E1F730
:1014800008959F3F30F080387105610509F03C5F99
:101490003C5F3D93913008F08068911DDF93CF93BE
:1014A0001F930F93FF92EF92192F987F9695E92F34
:1014B00096959695E90FFF27EE53FF4F992733270F
:1014C000EE24FF24A701E70105900894079428F46F
:1014D000360FE71EF81E491F511D660F771F881F24
:1014E000991F0694A1F70590079428F4E70EF81EBB
:1014F000491F561FC11D770F881F991F661F06942D
:10150000A1F70590079428F4F80E491F561FC71F2E
:10151000D11D880F991F661F771F0694A1F70590AC
:10152000079420F4490F561FC71FD81F990F661F35
:10153000771F881F0694A9F784911095177041F0C2
:10154000D695C79557954795F794E7941A95C1F79F
:10155000E8E6F0E0689415901591359165919591C4
:1015600005907FE27395E118F10A430B560BC90B06
:10157000D009C0F7E10CF11E431F561FC91FD01D33
:101580007EF4703311F48A95E6CFE894015030F080
:10159000080F0AF40027021708F4202F2395022FC2
:1015A0007A3328F079E37D932A95E9F710C07D938B
:1015B0002A9589F606949795679537951795179408
:1015C000E118F10A430B560BC90BD00998F023958B
:1015D0007E9173957A3308F070E37C932013B8F70B
:1015E0007E9170617D9330F0839571E37D9370E31C
:1015F0002A95E1F71124EF90FF900F911F91CF9161
:10160000DF91992787FD90950895E89409C097FB8D
:101610003EF490958095709561957F4F8F4F9F4FC9
:101620009923A9F0F92F96E9BB279395F69587950D
:1016300077956795B795F111F8CFFAF4BB0F11F4D0
:1016400060FF1BC06F5F7F4F8F4F9F4F16C0882377
:1016500011F096E911C0772321F09EE8872F762FAD
:1016600005C0662371F096E8862F70E060E02AF0EE
:101670009A95660F771F881FDAF7880F96958795DA
:1016800097F908950E94550B0C94C60B0E94B80B55
:1016900038F00E94BF0B20F0952311F00C94AF0B93
:1016A0000C94B50B11240C94FA0B0E94D70B70F319
:1016B000959FC1F3950F50E0551F629FF001729FF7
:1016C000BB27F00DB11D639FAA27F00DB11DAA1F06
:1016D000649F6627B00DA11D661F829F2227B00D53
:1016E000A11D621F739FB00DA11D621F839FA00DDE
:1016F000611D221F749F3327A00D611D231F849F2E
:10170000600D211D822F762F6A2F11249F57504084
:101710009AF0F1F088234AF0EE0FFF1FBB1F661FFF
:10172000771F881F91505040A9F79E3F510580F0C8
:101730000C94AF0B0C94FA0B5F3FE4F3983ED4F398
:10174000869577956795B795F795E7959F5FC1F76C
:10175000FE2B880F911D9695879597F9089597F917
:101760009F6780E870E060E008959FEF80EC089547
:1017700000240A9416161706180609060895002470
:101780000A9412161306140605060895092E0394EA
:10179000000C11F4882352F0BB0F40F4BF2B11F45E
:1017A00060FF04C06F5F7F4F8F4F9F4F089557FDBD
:1017B0009058440F551F59F05F3F71F04795880FBF
:1017C00097FB991F61F09F3F79F087950895121656
:1017D00013061406551FF2CF4695F1DF08C0161602
:1017E00017061806991FF1CF8695710561050894B3
:1017F0000895E894BB2766277727CB0197F90895CA
:10180000A1E21A2EAA1BBB1BFD010DC0AA1FBB1F04
:10181000EE1FFF1FA217B307E407F50720F0A21B76
:10182000B30BE40BF50B661F771F881F991F1A94E3
:1018300069F760957095809590959B01AC01BD010D
:10184000CF01089597FB072E16F4009407D077FD7B
:1018500009D00E94360C07FC05D03EF49095819586
:101860009F4F0895709561957F4F0895AA1BBB1BEC
:1018700051E107C0AA1FBB1FA617B70710F0A61B90
:10188000B70B881F991F5A95A9F780959095BC01B1
:10189000CD010895EE0FFF1F0590F491E02D0994FE
:0E18A00081E090E0F8940C94550CF894FFCF82
:1018AE000101006E0000000000C3012C015B010A63
:1018BE00028C016A017E01564D4450565F317C31D7
:1018CE005F564D4450560D0A00564D4450455F002C
:1018DE003A323A007C005F564D445045004C6173DD
:0C18EE007420617665726167653D000042
:107E0000112484B714BE81FFF0D085E080938100F7
:107E100082E08093C00088E18093C10086E0809377
:107E2000C20080E18093C4008EE0C9D0259A86E02C
:107E300020E33CEF91E0309385002093840096BBD3
:107E4000B09BFECF1D9AA8958150A9F7CC24DD24C4
:107E500088248394B5E0AB2EA1E19A2EF3E0BF2EE7
:107E6000A2D0813461F49FD0082FAFD0023811F036
:107E7000013811F484E001C083E08DD089C08234E0
:107E800011F484E103C0853419F485E0A6D080C0E4
:107E9000853579F488D0E82EFF2485D0082F10E0AE
:107EA000102F00270E291F29000F111F8ED06801E7
:107EB0006FC0863521F484E090D080E0DECF843638
:107EC00009F040C070D06FD0082F6DD080E0C81688
:107ED00080E7D80618F4F601B7BEE895C0E0D1E017
:107EE00062D089930C17E1F7F0E0CF16F0E7DF06D8
:107EF00018F0F601B7BEE89568D007B600FCFDCFD4
:107F0000A601A0E0B1E02C9130E011968C91119780
:107F100090E0982F8827822B932B1296FA010C0160
:107F200087BEE89511244E5F5F4FF1E0A038BF0790
:107F300051F7F601A7BEE89507B600FCFDCF97BE46
:107F4000E89526C08437B1F42ED02DD0F82E2BD052
:107F50003CD0F601EF2C8F010F5F1F4F84911BD097
:107F6000EA94F801C1F70894C11CD11CFA94CF0C13
:107F7000D11C0EC0853739F428D08EE10CD085E9AC
:107F80000AD08FE07ACF813511F488E018D01DD067
:107F900080E101D065CF982F8091C00085FFFCCF94
:107FA0009093C60008958091C00087FFFCCF809118
:107FB000C00084FD01C0A8958091C6000895E0E648
:107FC000F0E098E1908380830895EDDF803219F02E
:107FD00088E0F5DFFFCF84E1DECF1F93182FE3DFCA
:107FE0001150E9F7F2DF1F91089580E0E8DFEE27F6
:047FF000FF270994CA
:027FFE00040479
:0400000300007E007B
:00000001FF