:100000000C945D000C9485000C9485000C94850084
:100010000C9485000C9485000C9485000C9485004C
:100020000C9485000C9485000C9485000C9485003C
:100030000C9485000C9485000C9485000C9485002C
:100040000C949A030C9485000C9468030C9442035E
:100050000C9485000C9485000C9485000C9485000C
:100060000C9485000C94850000000008000201003B
:100070000003040700000000000000000000000072
:10008000250028002B0000000000240027002A0083
:10009000040404040404040402020202020203032E
:1000A0000303030301020408102040800102040836
:1000B0001020010204081020E40311241FBECFEF1A
:1000C000D8E0DEBFCDBF22E0ACE3B1E001C01D92BD
:1000D000A633B207E1F711E0A0E0B1E0E2E1F1E11F
:1000E00002C005900D92AC33B107D9F710E0CDE511
:1000F000D0E004C02197FE010E947C08CC35D107D6
:10010000C9F70E9423040C9487080C940000E1E5D1
:10011000F1E0A089B18982E08C93A485B5851C9219
:10012000A685B7858FEC8C93108EA489B58986E05F
:100130008C93A289B3898C9180618C93A289B389B5
:100140008C9188608C93A289B3898C9180688C9300
:100150000288F389E02D80818F7D8083089590E06F
:10016000FC01EC55FF4F2491FC01E057FF4F8491B7
:10017000882399F090E0880F991FFC01EA57FF4F00
:10018000A591B491FC01E458FF4F859194918FB7EC
:10019000F894EC91E22BEC938FBF0895CF92DF920D
:1001A000EF92FF920F931F93CF93DF936C017A012D
:1001B0008B01C0E0D0E0CE15DF0589F0D8016D914C
:1001C0008D01D601ED91FC910190F081E02DC601E9
:1001D0000995892B11F47E0102C02196ECCFC7014D
:1001E000DF91CF911F910F91FF90EF90DF90CF9013
:1001F0000895089580E090E00895FC01538D448DAA
:10020000252F30E0842F90E0821B930B541710F0C1
:10021000CF96089501970895FC01918D828D9817CE
:1002200061F0828DDF01A80FB11D5D968C91928DDA
:100230009F5F9F73928F90E008958FEF9FEF0895D7
:10024000FC01918D828D981731F0828DE80FF11DA0
:10025000858D90E008958FEF9FEF0895FC01918DBB
:10026000228D892F90E0805C9F4F821B91098F73B4
:100270009927089581E591E00E942E0121E0892BC4
:1002800009F420E0822F0895FC01848DDF01A80F7E
:10029000B11DA35ABF4F2C91848D90E001968F73AE
:1002A0009927848FA689B7892C93A089B1898C91CD
:1002B00080648C93938D848D981306C00288F38993
:1002C000E02D80818F7D80830895EF92FF920F93C0
:1002D0001F93CF93DF93EC0181E0888F9B8D8C8DF2
:1002E000981305C0E889F989808185FD24C0F62E20
:1002F0000B8D10E00F5F1F4F0F731127E02E8C8DB9
:10030000E8120CC00FB607FCFACFE889F9898081A2
:1003100085FFF5CFCE010E944401F1CF8B8DFE0108
:10032000E80FF11DE35AFF4FF0820B8FEA89FB893A
:100330008081806207C0EE89FF896083E889F9893E
:1003400080818064808381E090E0DF91CF911F9174
:100350000F91FF90EF900895CF93DF93EC01888D7C
:100360008823C9F0EA89FB89808185FD05C0A889B9
:10037000B9898C9186FD0FC00FB607FCF5CF80813F
:1003800085FFF2CFA889B9898C9185FFEDCFCE0189
:100390000E944401E7CFDF91CF91089580E090E083
:1003A000892B29F00E943A0181110C9400000895D4
:1003B00090E0FC01E859FF4F3491FC01EC55FF4FF0
:1003C0002491FC01E057FF4FE491EE2309F43BC078
:1003D000332339F1333091F038F43130A9F0323031
:1003E00001F584B58F7D12C0373091F03830A1F01F
:1003F0003430B9F4809180008F7D03C080918000FB
:100400008F77809380000DC084B58F7784BD09C03D
:100410008091B0008F7703C08091B0008F7D809372
:10042000B000F0E0EE0FFF1FE458FF4FA591B4912C
:100430008FB7F894EC91611103C020952E2301C071
:100440002E2B2C938FBF08953FB7F89480914301D2
:1004500090914401A0914501B091460126B5A89B19
:1004600005C02F3F19F00196A11DB11D3FBFBA2F46
:10047000A92F982F8827820F911DA11DB11DBC01A6
:10048000CD0142E0660F771F881F991F4A95D1F76B
:1004900008958F929F92AF92BF92CF92DF92EF9288
:1004A000FF926B017C010E9424024B015C01C1148C
:1004B000D104E104F104F1F00E942402DC01CB013B
:1004C00088199909AA09BB09883E9340A105B1057D
:1004D00070F321E0C21AD108E108F10888EE880E15
:1004E00083E0981EA11CB11CC114D104E104F104E5
:1004F00019F7DDCFFF90EF90DF90CF90BF90AF90D6
:100500009F908F9008952FB7F89460913F0170915C
:10051000400180914101909142012FBF089561E017
:100520008AE00E94D80164EF71E080E090E00C94D2
:10053000490261E088E00E94D80164EF71E080E048
:1005400090E00C94490260E087E00E94D80164EFDB
:1005500071E080E090E00C94490261E087E00E9445
:10056000D80164EF71E080E090E00C9449021F93A1
:10057000CF93DF93182F8BE0869FE001879FD00DEC
:100580001124CC50DE4FD0933D01C0933C0161E07B
:10059000812F0E94D801C230D10538F0CC0FDD1F69
:1005A000CC0FDD1F25972197F1F760E0812F0E9486
:1005B000D80164E170E080E090E0DF91CF911F917D
:1005C0000C9449020E9482086115710579F0FB01C3
:1005D00001900020E9F73197AF01461B570BDC0172
:1005E000ED91FC910280F381E02D099480E090E090
:1005F00008954F925F926F927F92EF92FF920F93C6
:100600001F93CF93DF93CDB7DEB7A1970FB6F894C2
:10061000DEBF0FBECDBF7C01FA01CB0119A2223093
:1006200008F42AE08E010F5D1F4F422E512C612CE1
:10063000712CBF01A30192010E945508F901CA0162
:10064000015011096A3014F4605D01C0695CD80181
:100650006C93232B242B252B61F7B801C7010E9433
:10066000E402A1960FB6F894DEBF0FBECDBFDF91B6
:10067000CF911F910F91FF90EF907F906F905F90BF
:100680004F9008951F920F920FB60F9211242F933F
:100690003F934F935F936F937F938F939F93AF930A
:1006A000BF93EF93FF9381E591E00E944401FF9196
:1006B000EF91BF91AF919F918F917F916F915F91DA
:1006C0004F913F912F910F900FBE0F901F90189553
:1006D0001F920F920FB60F9211242F938F939F9317
:1006E000EF93FF93E0916101F09162018081E091CD
:1006F0006701F091680182FD12C0908180916A01CA
:100700008F5F8F7320916B01821751F0E0916A0126
:10071000F0E0EF5AFE4F958F80936A0101C080810F
:10072000FF91EF919F918F912F910F900FBE0F909E
:100730001F9018951F920F920FB60F9211242F93AE
:100740003F938F939F93AF93BF9380913F0190917D
:100750004001A0914101B091420130913E0123E05E
:10076000230F2D3720F40196A11DB11D05C026E8E9
:10077000230F0296A11DB11D20933E0180933F01DE
:1007800090934001A0934101B093420180914301B5
:1007900090914401A0914501B09146010196A11D9F
:1007A000B11D8093430190934401A0934501B09300
:1007B0004601BF91AF919F918F913F912F910F90E3
:1007C0000FBE0F901F901895E1E5F1E013821282A1
:1007D00088EE93E0A0E0B0E084839583A683B7839E
:1007E00088E091E09183808385EC90E09587848711
:1007F00084EC90E09787868780EC90E0918B808BEB
:1008000081EC90E0938B828B82EC90E0958B848BD3
:1008100086EC90E0978B868B118E128E138E148E41
:10082000EEEEF1E01682178210861186128613868C
:100830001486158616861786108A118A128A138ADC
:10084000148A158A0895789484B5826084BD84B52D
:10085000816084BD85B5826085BD85B5816085BDBB
:1008600080916E00816080936E0010928100809173
:1008700081008260809381008091810081608093FB
:100880008100809180008160809380008091B10020
:1008900084608093B1008091B00081608093B0004B
:1008A00080917A00846080937A0080917A008260DF
:1008B00080937A0080917A00816080937A008091A1
:1008C0007A00806880937A001092C1001092320200
:1008D0001092330210923402109235021092F001FD
:1008E0001092F1011092F2011092F3010E94830222
:1008F0006B017C014B015C0128EB820E2BE0921E08
:10090000A11CB11C0E9483026C157D058E059F05FC
:1009100028F086169706A806B906A0F781E591E0AB
:1009200090933102809330020E9487000E948302DC
:100930006093F0017093F1018093F2019093F301C1
:1009400066E171E080913002909131020E94E402F0
:100950000E9483026B017C014B015C013AE0830E33
:10096000911CA11CB11C0E9483026C157D058E0593
:100970009F0528F086169706A806B906A0F781E01D
:100980008093040289E00E94AF0088E00E94AF00DB
:1009900087E00E94AF008CE00E94AF0061E08CE035
:1009A0000E94D80186E00E94AF0061E086E00E94CC
:1009B000D80188E00E94AF008AE00E94AF000E9448
:1009C000870068EE73E080E090E00E9449020E9498
:1009D000990268EE73E080E090E00E9449020E9474
:1009E0008F0268EE73E080E090E00E94490284EF9D
:1009F000C82EDD24D394E12CF12C90E4392EC9E7E4
:100A0000D0E00EE610E00E948302672B682B692B72
:100A100041F40E948302623071058105910508F45A
:100A200018C10E94830260934D0170934E01809320
:100A30004F01909350014090490150904A016090BD
:100A40004B0170904C01641575058605970540F4BF
:100A50006093490170934A0180934B0190934C013C
:100A60004090490150904A0160904B0170904C01B8
:100A70009B01AC01241935094609570929013A019E
:100A80003AEF431651046104710408F4E2C0609324
:100A9000490170934A0180934B0190934C01C0929D
:100AA000FC01D092FD01E092FE01F092FF01109254
:100AB0000002109201021092020210920302809131
:100AC000F4019091F501A091F601B091F7018093A6
:100AD000F8019093F901A093FA01B093FB010E94F1
:100AE00083026093F4017093F5018093F601909373
:100AF000F7010E9483026093F0017093F1018093EB
:100B0000F2019093F3010E9483022B013C0168E201
:100B100071E080913002909131020E94E4022AE05B
:100B200041E050E060E070E080913002909131024D
:100B30000E94F9026FE271E08091300290913102DF
:100B40000E94E4022AE0B301A20180913002909158
:100B500031020E94F90261E371E0809130029091CC
:100B600031020E94E4028091F4019091F501A0917C
:100B7000F601B091F701B301A201481B590B6A0BB2
:100B80007B0B2AE080913002909131020E94F902A1
:100B900061E371E080913002909131020E94E402A1
:100BA0004091F4015091F5016091F6017091F701C7
:100BB0008091F8019091F901A091FA01B091FB01A7
:100BC000481B590B6A0B7B0B2AE0809130029091F5
:100BD00031020E94F90263E371E08091300290914A
:100BE00031020E94E4020E948302AB01BC012AE0B0
:100BF00080913002909131020E94F902609030029F
:100C00007090310265E371E0C3010E94E40265E285
:100C100071E0C3010E94E4020E9483024B015C0167
:100C20002B013C0145E0440E511C611C711C0E94CB
:100C30008302681579058A059B0508F010C10E949A
:100C400083026093F4017093F5018093F601909311
:100C5000F70130927C0080917A00806480937A0062
:100C600080917A0086FDFCCF7090780060907900CA
:100C700064EF71E080E090E00E94490280910201FF
:100C8000909103018E36910511F5672D70E076295C
:100C9000072E000C880B990B0E94380720E030E0EB
:100CA00040EA5BE30E94970720E030E040E450E434
:100CB0000E94770818165CF40E94A30261E681E5A1
:100CC00091E00E946501D0930301C09302018091DD
:100CD0000201909103018937910539F40E94A30222
:100CE00061E681E591E00E94650181E591E00E9465
:100CF0002E01181619060CF0AFC081E591E00E9494
:100D00000C018536910509F475C0E4F4813691052E
:100D100009F466C064F48B32910509F446C08D97DE
:100D200009F09AC0109248011092470128C08236FB
:100D3000910509F477C08336910509F08DC060E014
:100D40008AE05EC08637910509F463C06CF482378F
:100D5000910509F44AC08337910509F07DC0D0930D
:100D60000301C093020178C08837910509F445C09A
:100D70008A37910509F070C060E088E041C060905A
:100D800047017090480184E0681671040CF064C05B
:100D9000B30189E090E00E94B7025FEF651A750A1F
:100DA0007092480160924701EACF24EB30E0309323
:100DB000480120934701609047017090480141EB42
:100DC000641671046CF0B30189E090E00E94B702F0
:100DD00031E0631A71087092480160924701EBCFCD
:100DE000109303010093020137C010930301009395
:100DF000020130C00E94A3022FC00E9499020BC0C2
:100E00000E94D80164EF71E080E090E00E94490206
:100E100002C00E948F0264E670E080E090E00E94D1
:100E200049021AC08091000190910101892B41F47F
:100E300081E090E090930101809300010E94A30261
:100E40008091000190910101019731F4109201010C
:100E5000109200010E94AD020E94CE01D4CD461630
:100E600057066806790608F0E2CEE9CEE89409C094
:100E700097FB3EF490958095709561957F4F8F4FCD
:100E80009F4F9923A9F0F92F96E9BB279395F695E3
:100E9000879577956795B795F111F8CFFAF4BB0F61
:100EA00011F460FF1BC06F5F7F4F8F4F9F4F16C0C5
:100EB000882311F096E911C0772321F09EE8872F4F
:100EC000762F05C0662371F096E8862F70E060E00B
:100ED0002AF09A95660F771F881FDAF7880F969584
:100EE000879597F90895990F0008550FAA0BE0E828
:100EF000FEEF16161706E807F907C0F012161306DC
:100F0000E407F50798F0621B730B840B950B39F41B
:100F10000A2661F0232B242B252B21F408950A2681
:100F200009F4A140A6958FEF811D811D08950E94AF
:100F3000AA070C941B080E940D0838F00E941408A0
:100F400020F0952311F00C9404080C940A08112445
:100F50000C944F080E942C0870F3959FC1F3950FD5
:100F600050E0551F629FF001729FBB27F00DB11D2D
:100F7000639FAA27F00DB11DAA1F649F6627B00DBD
:100F8000A11D661F829F2227B00DA11D621F739FA6
:100F9000B00DA11D621F839FA00D611D221F749FB4
:100FA0003327A00D611D231F849F600D211D822FFB
:100FB000762F6A2F11249F5750409AF0F1F0882322
:100FC0004AF0EE0FFF1FBB1F661F771F881F91504F
:100FD0005040A9F79E3F510580F00C9404080C94F2
:100FE0004F085F3FE4F3983ED4F386957795679575
:100FF000B795F795E7959F5FC1F7FE2B880F911D79
:101000009695879597F9089597F99F6780E870E01E
:1010100060E008959FEF80EC089500240A9416166E
:10102000170618060906089500240A9412161306D6
:10103000140605060895092E0394000C11F4882364
:1010400052F0BB0F40F4BF2B11F460FF04C06F5F80
:101050007F4F8F4F9F4F089557FD9058440F551F56
:1010600059F05F3F71F04795880F97FB991F61F02A
:101070009F3F79F087950895121613061406551FA1
:10108000F2CF4695F1DF08C0161617061806991F0D
:10109000F1CF86957105610508940895E894BB2702
:1010A00066277727CB0197F90895A1E21A2EAA1B8C
:1010B000BB1BFD010DC0AA1FBB1FEE1FFF1FA21708
:1010C000B307E407F50720F0A21BB30BE40BF50B05
:1010D000661F771F881F991F1A9469F7609570958E
:1010E000809590959B01AC01BD01CF0108950E94B0
:1010F000730708F48FEF0895EE0FFF1F0590F4912A
:10110000E02D099481E090E0F8940C948708F8941D
:02111000FFCF0F
:1011120001006E00000000006501CE00FD00AC0180
:101122002E010C012001564D4450565F317C315F37
:10113200564D4450560D0A00564D4450455F003AF4
:0C114200323A007C005F564D44504500DE
:107E0000112484B714BE81FFF0D085E080938100F7
:107E100082E08093C00088E18093C10086E0809377
:107E2000C20080E18093C4008EE0C9D0259A86E02C
:107E300020E33CEF91E0309385002093840096BBD3
:107E4000B09BFECF1D9AA8958150A9F7CC24DD24C4
:107E500088248394B5E0AB2EA1E19A2EF3E0BF2EE7
:107E6000A2D0813461F49FD0082FAFD0023811F036
:107E7000013811F484E001C083E08DD089C08234E0
:107E800011F484E103C0853419F485E0A6D080C0E4
:107E9000853579F488D0E82EFF2485D0082F10E0AE
:107EA000102F00270E291F29000F111F8ED06801E7
:107EB0006FC0863521F484E090D080E0DECF843638
:107EC00009F040C070D06FD0082F6DD080E0C81688
:107ED00080E7D80618F4F601B7BEE895C0E0D1E017
:107EE00062D089930C17E1F7F0E0CF16F0E7DF06D8
:107EF00018F0F601B7BEE89568D007B600FCFDCFD4
:107F0000A601A0E0B1E02C9130E011968C91119780
:107F100090E0982F8827822B932B1296FA010C0160
:107F200087BEE89511244E5F5F4FF1E0A038BF0790
:107F300051F7F601A7BEE89507B600FCFDCF97BE46
:107F4000E89526C08437B1F42ED02DD0F82E2BD052
:107F50003CD0F601EF2C8F010F5F1F4F84911BD097
:107F6000EA94F801C1F70894C11CD11CFA94CF0C13
:107F7000D11C0EC0853739F428D08EE10CD085E9AC
:107F80000AD08FE07ACF813511F488E018D01DD067
:107F900080E101D065CF982F8091C00085FFFCCF94
:107FA0009093C60008958091C00087FFFCCF809118
:107FB000C00084FD01C0A8958091C6000895E0E648
:107FC000F0E098E1908380830895EDDF803219F02E
:107FD00088E0F5DFFFCF84E1DECF1F93182FE3DFCA
:107FE0001150E9F7F2DF1F91089580E0E8DFEE27F6
:047FF000FF270994CA
:027FFE00040479
:0400000300007E007B
:00000001FF