:100000000C94DA000C9402010C9402010C9402018D
:100010000C9402010C9402010C9402010C94020154
:100020000C9402010C9402010C9402010C94020144
:100030000C9402010C9402010C9402010C94020134
:100040000C948C040C9402010C945A040C94340407
:100050000C9402010C9402010C9402010C94020114
:100060000C9402010C94020100407A10F35A00A093
:10007000724E18090010A5D4E80000E87648170071
:1000800000E40B54020000CA9A3B000000E1F505B1
:10009000000080969800000040420F000000A086FB
:1000A00001000000102700000000E803000000002D
:1000B0006400000000000A000000000001000000D1
:1000C00000002C76D888DC674F0823DFC1DFAE59EB
:1000D000E1B1B796E5E3E453C63AE651997696E87E
:1000E000E6C28426EB898C9B62ED407C6FFCEFBC02
:1000F0009C9F40F2BAA56FA5F490055A2AF75C932D
:100100006B6CF9676DC11BFCE0E40D47FEF520E662
:10011000B500D0ED902E0300943577050080841E45
:10012000080000204E0A000000C80C333333330FA0
:10013000986E12831141EF8D2114893BE65516CF3D
:10014000FEE6DB18D1844B381BF77C1D901DA4BB49
:10015000E424203284725E228100C9F124ECA1E5FE
:100160003D2700000000240027002A0000000000B6
:10017000250028002B0004040404040404040202E3
:100180000202020203030303030301020408102016
:100190004080010204081020010204081020000021
:1001A0000008000201000003040700000000000036
:1001B0000000D60411241FBECFEFD8E0DEBFCDBFB4
:1001C00022E0A2E5B1E001C01D92A836B207E1F736
:1001D00011E0A0E0B1E0ECE3F9E102C005900D927E
:1001E000A235B107D9F710E0CAEDD0E004C02197DD
:1001F000FE010E94910CC93DD107C9F70E94150567
:100200000C949C0C0C940000E3E8F1E0A089B18907
:1002100082E08C93A485B5851C92A685B7858FEC6A
:100220008C93108EA489B58986E08C93A289B389BA
:100230008C9180618C93A289B3898C9188608C9316
:10024000A289B3898C9180688C930288F389E02D10
:1002500080818F7D80830895CF92DF92EF92FF920D
:100260000F931F93CF93DF936C017A018B01C0E052
:10027000D0E0CE15DF0589F0D8016D918D01D60152
:10028000ED91FC910190F081E02DC6010995892B3B
:1002900011F47E0102C02196ECCFC701DF91CF910E
:1002A0001F910F91FF90EF90DF90CF9008950895E8
:1002B00080E090E00895FC01538D448D252F30E0BF
:1002C000842F90E0821B930B541710F0CF96089563
:1002D00001970895FC01918D828D981761F0828DB0
:1002E000DF01A80FB11D5D968C91928D9F5F9F736A
:1002F000928F90E008958FEF9FEF0895FC01918D0C
:10030000828D981731F0828DE80FF11D858D90E078
:1003100008958FEF9FEF0895FC01918D228D892F15
:1003200090E0805C9F4F821B91098F7399270895FD
:1003300083E891E00E948C0121E0892B09F420E000
:10034000822F0895FC01848DDF01A80FB11DA35AEF
:10035000BF4F2C91848D90E001968F739927848FE5
:10036000A689B7892C93A089B1898C9180648C93DC
:10037000938D848D981306C00288F389E02D8081C7
:100380008F7D80830895EF92FF920F931F93CF93F9
:10039000DF93EC0181E0888F9B8D8C8D981305C0D5
:1003A000E889F989808185FD24C0F62E0B8D10E047
:1003B0000F5F1F4F0F731127E02E8C8DE8120CC0BA
:1003C0000FB607FCFACFE889F989808185FFF5CF60
:1003D000CE010E94A201F1CF8B8DFE01E80FF11D2D
:1003E000E35AFF4FF0820B8FEA89FB89808180629C
:1003F00007C0EE89FF896083E889F989808180647C
:10040000808381E090E0DF91CF911F910F91FF9069
:10041000EF900895CF93DF93EC01888D8823C9F086
:10042000EA89FB89808185FD05C0A889B9898C91FD
:1004300086FD0FC00FB607FCF5CF808185FFF2CF98
:10044000A889B9898C9185FFEDCFCE010E94A201C8
:10045000E7CFDF91CF91089580E090E0892B29F0DC
:100460000E94980181110C940000089590E0FC0115
:10047000E256FE4F3491FC01E657FE4F2491FC01F9
:10048000EA58FE4FE491EE2309F43BC0332339F1DF
:10049000333091F038F43130A9F0323001F584B5C1
:1004A0008F7D12C0373091F03830A1F03430B9F47C
:1004B000809180008F7D03C0809180008F77809332
:1004C00080000DC084B58F7784BD09C08091B000D5
:1004D0008F7703C08091B0008F7D8093B000F0E0F3
:1004E000EE0FFF1FE459FE4FA591B4918FB7F8941A
:1004F000EC91611103C020952E2301C02E2B2C936B
:100500008FBF0895CF93DF9390E0FC01E657FE4F35
:100510002491FC01EA58FE4F8491882361F190E018
:10052000880F991FFC01EE59FE4FC591D491FC0133
:10053000E459FE4FA591B491611109C09FB7F89499
:100540008881209582238883EC912E230BC0623012
:1005500061F49FB7F8943881822F80958323888334
:10056000EC912E2B2C939FBF06C08FB7F894E88197
:100570002E2B28838FBFDF91CF9108958E3008F006
:100580008E508770806480937C0080917A008064B4
:1005900080937A0080917A0086FDFCCF809178006C
:1005A0002091790090E0922B08953FB7F8948091C4
:1005B000590190915A01A0915B01B0915C0126B55F
:1005C000A89B05C02F3F19F00196A11DB11D3FBF8B
:1005D000BA2FA92F982F8827820F911DA11DB11D19
:1005E000BC01CD0142E0660F771F881F991F4A9515
:1005F000D1F708958F929F92AF92BF92CF92DF92E0
:10060000EF92FF926B017C010E94D5024B015C01CD
:10061000C114D104E104F104F1F00E94D502DC011F
:10062000CB0188199909AA09BB09883E9340A10505
:10063000B10570F321E0C21AD108E108F10888EE93
:10064000880E83E0981EA11CB11CC114D104E104E2
:10065000F10419F7DDCFFF90EF90DF90CF90BF90BE
:10066000AF909F908F9008952FB7F89460915501A7
:100670007091560180915701909158012FBF0895B4
:1006800061E08AE00E94360264EF71E080E090E071
:100690000C94FA0261E088E00E94360264EF71E097
:1006A00080E090E00C94FA0260E087E00E9436025D
:1006B00064EF71E080E090E00C94FA0261E087E082
:1006C0000E94360264EF71E080E090E00C94FA0240
:1006D0001F93CF93DF93182F8BE0869FE001879FB6
:1006E000D00D1124CC50DE4FD0935301C093520152
:1006F00061E0812F0E943602C230D10538F0CC0F64
:10070000DD1FCC0FDD1F25972197F1F760E0812FCA
:100710000E94360264E170E080E090E0DF91CF91CA
:100720001F910C94FA020E94970C6115710579F0E3
:10073000FB0101900020E9F73197AF01461B570BF1
:10074000DC01ED91FC910280F381E02D099480E0C1
:1007500090E008954F925F926F927F92EF92FF9296
:100760000F931F93CF93DF93CDB7DEB7A1970FB64B
:10077000F894DEBF0FBECDBF7C01FA01CB0119A2F8
:10078000223008F42AE08E010F5D1F4F422E512CBB
:10079000612C712CBF01A30192010E94470CF90149
:1007A000CA01015011096A3014F4605D01C0695C2E
:1007B000D8016C93232B242B252B61F7B801C7019B
:1007C0000E949503A1960FB6F894DEBF0FBECDBF71
:1007D000DF91CF911F910F91FF90EF907F906F90DD
:1007E0005F904F900895CF92DF92EF92FF92CF9358
:1007F000DF936C01990FEE08FF08F7FE1CC0E09133
:100800008301F09184010190F081E02D6DE283E895
:1008100091E00995EC0144275527BA014C195D096F
:100820006E097F092AE083E891E00E94AA037C0117
:10083000EC0EFD1E08C02AE0B701A60183E891E096
:100840000E94AA037C0165E271E083E891E00E94C6
:1008500095038E0D9F1DDF91CF91FF90EF90DF905C
:10086000CF9008950C9495031F920F920FB60F929C
:1008700011242F933F934F935F936F937F938F93A5
:100880009F93AF93BF93EF93FF9383E891E00E9410
:10089000A201FF91EF91BF91AF919F918F917F91B5
:1008A0006F915F914F913F912F910F900FBE0F90DD
:1008B0001F9018951F920F920FB60F9211242F932D
:1008C0008F939F93EF93FF93E0919301F0919401A5
:1008D0008081E0919901F0919A0182FD12C090818E
:1008E00080919C018F5F8F7320919D01821751F041
:1008F000E0919C01F0E0ED57FE4F958F80939C01B5
:1009000001C08081FF91EF919F918F912F910F9066
:100910000FBE0F901F9018951F920F920FB60F9257
:1009200011242F933F938F939F93AF93BF93809105
:10093000550190915601A0915701B0915801309105
:10094000540123E0230F2D3720F40196A11DB11D82
:1009500005C026E8230F0296A11DB11D2093540166
:100960008093550190935601A0935701B09358017D
:100970008091590190915A01A0915B01B0915C0165
:100980000196A11DB11D8093590190935A01A09326
:100990005B01B0935C01BF91AF919F918F913F91AB
:1009A0002F910F900FBE0F901F901895E3E8F1E084
:1009B0001382128288EE93E0A0E0B0E084839583F6
:1009C000A683B78388E091E09183808385EC90E0F3
:1009D0009587848784EC90E09787868780EC90E009
:1009E000918B808B81EC90E0938B828B82EC90E0FA
:1009F000958B848B86EC90E0978B868B118E128E74
:100A0000138E148EE0E2F2E01682178210861186B1
:100A1000128613861486158616861786108A118A02
:100A2000128A138A148A158A0895CF93DF93CDB75B
:100A3000DEB72A970FB6F894DEBF0FBECDBF78940D
:100A400084B5826084BD84B5816084BD85B58260D3
:100A500085BD85B5816085BD80916E008160809384
:100A60006E001092810080918100826080938100ED
:100A700080918100816080938100809180008160FD
:100A8000809380008091B10084608093B100809158
:100A9000B00081608093B00080917A008460809380
:100AA0007A0080917A00826080937A0080917A0047
:100AB000816080937A0080917A00806880937A00C8
:100AC0001092C100109264021092650210926602A8
:100AD00010926702109222021092230210922402B6
:100AE000109225020E9434036B017C014B015C01D2
:100AF00028EB820E2BE0921EA11CB11C0E94340335
:100B00006C157D058E059F0528F086169706A806AC
:100B1000B906A0F783E891E09093630280936202A4
:100B20000E9404010E943403609322027093230206
:100B3000809324029093250266E171E08091620225
:100B4000909163020E9432040E9434036B017C0185
:100B50004B015C018AE0880E911CA11CB11C0E9413
:100B600034036C157D058E059F0528F086169706C3
:100B7000A806B906A0F781E08093360261E089E01B
:100B80000E94820261E088E00E94820261E087E0C8
:100B90000E94820261E08CE00E94820261E08CE0AF
:100BA0000E94360261E086E00E94820261E086E0F7
:100BB0000E94360261E088E00E94820261E08AE0E1
:100BC0000E9482020E94040168EE73E080E090E0DF
:100BD0000E94FA020E944A0368EE73E080E090E00F
:100BE0000E94FA020E94400368EE73E080E090E009
:100BF0000E94FA0260E083E10E948202E3E6F1E0F3
:100C00001192119291E0E737F907D1F734EFC32E33
:100C1000DD24D394E12CF12C44EB242E312C0E94C2
:100C20003403672B682B692B41F40E943403623034
:100C300071058105910508F417C10E943403609382
:100C40007F017093800180938101909382010091D4
:100C50007B0110917C0120917D0130917E01601714
:100C600071078207930740F460937B0170937C01C6
:100C700080937D0190937E0100917B0110917C0116
:100C800020917D0130917E014B015C01801A910A17
:100C9000A20AB30A950184010A3F11052105310515
:100CA00008F4E2C060937B0170937C0180937D0126
:100CB00090937E01C0922E02D0922F02E0923002D9
:100CC000F0923102109232021092330210923402EA
:100CD000109235028091260290912702A09128025D
:100CE000B091290280932A0290932B02A0932C02A8
:100CF000B0932D020E943403609326027093270262
:100D000080932802909329020E9434036093220268
:100D10007093230280932402909325020E9434034F
:100D20002B013C0168E271E08091620290916302C4
:100D30000E9432042AE041E050E060E070E08091DF
:100D40006202909163020E94AA036FE271E08091B7
:100D50006202909163020E9432042AE0B301A20170
:100D600080916202909163020E94AA0361E371E0A4
:100D700080916202909163020E9432048091260267
:100D800090912702A0912802B0912902B301A201FB
:100D9000481B590B6A0B7B0B2AE0809162029091F1
:100DA00063020E94AA0361E371E080916202909164
:100DB00063020E9432044091260250912702609102
:100DC00028027091290280912A0290912B02A09111
:100DD0002C02B0912D02481B590B6A0B7B0B2AE0A9
:100DE00080916202909163020E94AA0363E371E022
:100DF00080916202909163020E9432040E94340347
:100E0000AB01BC012AE080916202909163020E94D2
:100E1000AA03009162021091630265E371E0C801C8
:100E20000E94950365E271E0C8010E9495030E944B
:100E300034034B015C012B013C0125E0420E511CA7
:100E4000611C711C0E943403681579058A059B0595
:100E500008F095C10E943403609326027093270224
:100E6000809328029093290280E00E94BE0264EFE2
:100E700071E080E090E00E94FA026090770170904B
:100E800078018301000F111F0D591E4F80907901C9
:100E900090907A01F80120813181821A930A83E1CE
:100EA0000E94BE02F80191838083880D991D909362
:100EB0007A0180937901FFEF6F1A7F0A2AE06216A8
:100EC00071042CF4709278016092770104C0109242
:100ED0007801109277016AE070E00E94690C7093CB
:100EE0006201609361016CE371E083E891E00E942C
:100EF000320480916101909162010E94F30364E6E3
:100F000070E080E090E00E94FA0267E471E083E81C
:100F100091E00E9432046DB67EB68DB79EB74E97B3
:100F20000FB6F8949EBF0FBE8DBF0DB71EB70F5FF3
:100F30001F4F8DB69EB69FE1890E911C280183E15B
:100F40000E94BE02F201819391932F01E815F905E9
:100F5000B1F78FE090E0B801645E7F4FF801219116
:100F60003191408151814217530734F4DF011297C8
:100F70004D935C9331832083E617F70781F7019740
:100F800069F7F801868597850FB6F8947EBE0FBE87
:100F90006DBE0E94F30364E670E080E090E00E9482
:100FA000FA0283E10E94BE028C019093600180935B
:100FB0005F0168EC70E080E090E00E94FA02B80106
:100FC000110F880B990B0E944E0B20E030E040EA95
:100FD0005BE30E94890B8E010F5F1F4F23E047E008
:100FE0000E94C608B80183E891E00E94950365E27B
:100FF00071E083E891E00E94950364EF71E080E086
:1010000090E00E94FA0283E891E00E948C01181699
:1010100019060CF0B1C083E891E00E946A018536A0
:10102000910509F477C0E4F48136910509F463C0B1
:1010300064F48B32910509F447C08D9709F09CC088
:1010400010925E0110925D012BC08236910509F469
:1010500079C08336910509F08FC060E08AE060C0F6
:101060008637910509F465C084F48237910509F447
:101070004AC08337910509F07FC089E7A82EB12CBB
:10108000B0920301A092020177C08837910509F45C
:1010900044C08A37910509F06FC060E088E040C025
:1010A00000915D0110915E01043011050CF064C0E7
:1010B000B80189E090E00E9468030F5F1F4F109312
:1010C0005E0100935D01ECCF30925E0120925D01E4
:1010D00000915D0110915E01013B110564F0B801C2
:1010E00089E090E00E9468030150110910935E01AD
:1010F00000935D01EDCF9EE6892E912C9092030125
:101100008092020139C08EE690E0909303018093B3
:10111000020130C00E9454032FC00E944A030BC03A
:101120000E94360264EF71E080E090E00E94FA02D3
:1011300002C00E94400364E670E080E090E00E94FC
:10114000FA021AC08091000190910101892B41F4AB
:10115000E1E0F0E0F0930101E09300010E9454030C
:101160008091000190910101019731F410920101E9
:10117000109200010E945E030E942C0250CD461680
:1011800057066806790608F05DCE64CEEF920F939D
:101190001F93CF93DF93E80147FD02C034E001C005
:1011A00034E1E42F440FFF0BF7FF03C0F195E19505
:1011B000F109E32E022F2E2FAE010E94E608CE0188
:1011C000DF91CF911F910F91EF9008954F925F9211
:1011D0006F927F929F92AF92BF92CF92DF92EF92E7
:1011E000FF920F931F93CF93DF93CDB7DEB729976D
:1011F0000FB6F894DEBF0FBECDBF6A01122FB02E1E
:101200002BE3201720F0FF24F394F00E02C0BCE380
:10121000FB2E0F2D27E0AE014F5F5F4F0E94740A37
:10122000AC018981982F9970913031F0E1FC06C0B2
:10123000E0FE06C090E205C09DE203C09BE201C053
:1012400090E0EE2DE07183FF3CC0911102C083E07D
:1012500001C084E0811718F4212F281B01C020E071
:10126000E1110BC0F601822F30E2882319F031938F
:101270008150FBCFC20ED11C20E0992329F0D6016A
:101280009C93F60131966F01C6010396E2FE0AC0F7
:101290003EE4D6013C9341E411964C93119712968B
:1012A0003C9306C03EE6F601308341E6418332833B
:1012B000FC01322F40E2332309F442C04193315004
:1012C000FACF82FF44C0911102C083E001C084E0E4
:1012D000811718F4212F281B01C020E0E1110BC059
:1012E000F601822F30E2882319F031938150FBCF31
:1012F000C20ED11C20E0992329F0D6019C93F6015F
:1013000031966F01C6010396E2FE0BC039E4D601A7
:101310003C933EE411963C93119736E412963C932D
:1013200007C039E6F60130833EE6318336E6328384
:10133000FC01322F40E2332319F041933150FBCFAF
:10134000FC01E20FF11D10828EEF9FEFB7C0F1E0BC
:10135000911101C0F0E06F2F70E01416150624F40F
:101360009A012F5F3F4F02C021E030E0260F371F68
:10137000BB2029F06B2D70E06F5F7F4F02C060E0F3
:1013800070E0260F371F612F70E0261737071CF417
:10139000121B212F01C020E03E2D387159F4D601D7
:1013A000322F60E2332319F06D933150FBCFC20E20
:1013B000D11C20E0FF2331F0D6019C93B6016F5F72
:1013C0007F4F6B01E1110BC0F601922F30E399239F
:1013D00019F031939150FBCFC20ED11C20E09F2D0C
:1013E000940F3A81782F7071A72E84FF03C0313398
:1013F00009F49150191624F4993018F098E001C0BE
:1014000091E0E42F852F57FF02C0E0E080E06E2FCF
:10141000782FE0E0F0E0AEE29A2E3A01691A710806
:101420002A01461A570A0B2D10E011950195110952
:101430006F3F8FEF780729F4D6019C92C601019681
:101440006C014617570784F0661677066CF47F0127
:10145000E40CF51CA1E0B0E0AC0FBD1FEA0EFB1ED2
:10146000D7011196BC9002C090E3B92E615071096A
:101470003196C60101967C016017710724F0D601F0
:10148000BC926C01D5CF6417750741F4363320F454
:10149000353321F4A11002C081E3B82EF601B082E9
:1014A000F701822F90E2882319F091938150FBCFAE
:1014B000F701E20FF11D108280E090E029960FB64F
:1014C000F894DEBF0FBECDBFDF91CF911F910F917A
:1014D000FF90EF90DF90CF90BF90AF909F907F9064
:1014E0006F905F904F900895283008F027E03327E1
:1014F000DA01990F311D87FD916000966105710534
:1015000039F432602E5F3D9330E32A95E1F7089578
:101510009F3F30F080387105610509F03C5F3C5F0A
:101520003D93913008F08068911DDF93CF931F9316
:101530000F93FF92EF92192F987F9695E92F96952A
:101540009695E90FFF27EE53FF4F99273327EE2497
:10155000FF24A701E70105900894079428F4360FAB
:10156000E71EF81E491F511D660F771F881F991F20
:101570000694A1F70590079428F4E70EF81E491F7A
:10158000561FC11D770F881F991F661F0694A1F76C
:101590000590079428F4F80E491F561FC71FD11D48
:1015A000880F991F661F771F0694A1F7059007946F
:1015B00020F4490F561FC71FD81F990F661F771FAA
:1015C000881F0694A9F784911095177041F0D6955D
:1015D000C79557954795F794E7941A95C1F7E8E6AC
:1015E000F0E068941590159135916591959105906D
:1015F0007FE27395E118F10A430B560BC90BD00932
:10160000C0F7E10CF11E431F561FC91FD01D7EF409
:10161000703311F48A95E6CFE894015030F0080F4A
:101620000AF40027021708F4202F2395022F7A339B
:1016300028F079E37D932A95E9F710C07D932A95E8
:1016400089F6069497956795379517951794E1183D
:10165000F10A430B560BC90BD00998F023957E91E4
:1016600073957A3308F070E37C932013B8F77E917A
:1016700070617D9330F0839571E37D9370E32A95DB
:10168000E1F71124EF90FF900F911F91CF91DF911F
:10169000992787FD90950895E89409C097FB3EF43B
:1016A00090958095709561957F4F8F4F9F4F9923AF
:1016B000A9F0F92F96E9BB279395F695879577952D
:1016C0006795B795F111F8CFFAF4BB0F11F460FFED
:1016D0001BC06F5F7F4F8F4F9F4F16C0882311F045
:1016E00096E911C0772321F09EE8872F762F05C059
:1016F000662371F096E8862F70E060E02AF09A95F4
:10170000660F771F881FDAF7880F9695879597F9E8
:1017100008950E949C0B0C940D0C0E94FF0B38F056
:101720000E94060C20F0952311F00C94F60B0C94FB
:10173000FC0B11240C94410C0E941E0C70F3959F1D
:10174000C1F3950F50E0551F629FF001729FBB27B8
:10175000F00DB11D639FAA27F00DB11DAA1F649F54
:101760006627B00DA11D661F829F2227B00DA11D07
:10177000621F739FB00DA11D621F839FA00D611D8D
:10178000221F749F3327A00D611D231F849F600DAE
:10179000211D822F762F6A2F11249F5750409AF0D7
:1017A000F1F088234AF0EE0FFF1FBB1F661F771F63
:1017B000881F91505040A9F79E3F510580F00C942E
:1017C000F60B0C94410C5F3FE4F3983ED4F38695FE
:1017D00077956795B795F795E7959F5FC1F7FE2BCE
:1017E000880F911D9695879597F9089597F99F67AA
:1017F00080E870E060E008959FEF80EC0895002499
:101800000A941616170618060906089500240A9465
:1018100012161306140605060895092E0394000CEB
:1018200011F4882352F0BB0F40F4BF2B11F460FF7A
:1018300004C06F5F7F4F8F4F9F4F089557FD9058A3
:10184000440F551F59F05F3F71F04795880F97FB84
:10185000991F61F09F3F79F087950895121613063E
:101860001406551FF2CF4695F1DF08C0161617066D
:101870001806991FF1CF86957105610508940895A2
:10188000E894BB2766277727CB0197F90895A1E253
:101890001A2EAA1BBB1BFD010DC0AA1FBB1FEE1FEA
:1018A000FF1FA217B307E407F50720F0A21BB30B35
:1018B000E40BF50B661F771F881F991F1A9469F7B1
:1018C00060957095809590959B01AC01BD01CF010D
:1018D000089597FB072E16F4009407D077FD09D0E2
:1018E0000E947D0C07FC05D03EF4909581959F4F9A
:1018F0000895709561957F4F0895AA1BBB1B51E118
:1019000007C0AA1FBB1FA617B70710F0A61BB70B6F
:10191000881F991F5A95A9F780959095BC01CD0114
:101920000895EE0FFF1F0590F491E02D099481E0DA
:0C19300090E0F8940C949C0CF894FFCF0D
:10193C0001006E0000000000C3012C015B010A02D3
:10194C008C016A017E01564D4450565F317C315FEB
:10195C00564D4450560D0A00564D4450455F003AC2
:10196C00323A007C005F564D44504500417661721E
:10197C00616765203D20004D656469616E203D20E6
:02198C00000059
:107E0000112484B714BE81FFF0D085E080938100F7
:107E100082E08093C00088E18093C10086E0809377
:107E2000C20080E18093C4008EE0C9D0259A86E02C
:107E300020E33CEF91E0309385002093840096BBD3
:107E4000B09BFECF1D9AA8958150A9F7CC24DD24C4
:107E500088248394B5E0AB2EA1E19A2EF3E0BF2EE7
:107E6000A2D0813461F49FD0082FAFD0023811F036
:107E7000013811F484E001C083E08DD089C08234E0
:107E800011F484E103C0853419F485E0A6D080C0E4
:107E9000853579F488D0E82EFF2485D0082F10E0AE
:107EA000102F00270E291F29000F111F8ED06801E7
:107EB0006FC0863521F484E090D080E0DECF843638
:107EC00009F040C070D06FD0082F6DD080E0C81688
:107ED00080E7D80618F4F601B7BEE895C0E0D1E017
:107EE00062D089930C17E1F7F0E0CF16F0E7DF06D8
:107EF00018F0F601B7BEE89568D007B600FCFDCFD4
:107F0000A601A0E0B1E02C9130E011968C91119780
:107F100090E0982F8827822B932B1296FA010C0160
:107F200087BEE89511244E5F5F4FF1E0A038BF0790
:107F300051F7F601A7BEE89507B600FCFDCF97BE46
:107F4000E89526C08437B1F42ED02DD0F82E2BD052
:107F50003CD0F601EF2C8F010F5F1F4F84911BD097
:107F6000EA94F801C1F70894C11CD11CFA94CF0C13
:107F7000D11C0EC0853739F428D08EE10CD085E9AC
:107F80000AD08FE07ACF813511F488E018D01DD067
:107F900080E101D065CF982F8091C00085FFFCCF94
:107FA0009093C60008958091C00087FFFCCF809118
:107FB000C00084FD01C0A8958091C6000895E0E648
:107FC000F0E098E1908380830895EDDF803219F02E
:107FD00088E0F5DFFFCF84E1DECF1F93182FE3DFCA
:107FE0001150E9F7F2DF1F91089580E0E8DFEE27F6
:047FF000FF270994CA
:027FFE00040479
:0400000300007E007B
:00000001FF