:100000000C94DA000C9402010C9402010C9402018D
:100010000C9402010C9402010C9402010C94020154
:100020000C9402010C9402010C9402010C94020144
:100030000C9402010C9402010C9402010C94020134
:100040000C9420040C9402010C94EE030C94C8034D
:100050000C9402010C9402010C9402010C94020114
:100060000C9402010C94020100407A10F35A00A093
:10007000724E18090010A5D4E80000E87648170071
:1000800000E40B54020000CA9A3B000000E1F505B1
:10009000000080969800000040420F000000A086FB
:1000A00001000000102700000000E803000000002D
:1000B0006400000000000A000000000001000000D1
:1000C00000002C76D888DC674F0823DFC1DFAE59EB
:1000D000E1B1B796E5E3E453C63AE651997696E87E
:1000E000E6C28426EB898C9B62ED407C6FFCEFBC02
:1000F0009C9F40F2BAA56FA5F490055A2AF75C932D
:100100006B6CF9676DC11BFCE0E40D47FEF520E662
:10011000B500D0ED902E0300943577050080841E45
:10012000080000204E0A000000C80C333333330FA0
:10013000986E12831141EF8D2114893BE65516CF3D
:10014000FEE6DB18D1844B381BF77C1D901DA4BB49
:10015000E424203284725E228100C9F124ECA1E5FE
:100160003D27000000080002010000030407000012
:1001700000000000000000000000250028002B0007
:1001800000000000240027002A00040404040404E2
:100190000404020202020202030303030303010236
:1001A0000408102040800102040810200102040805
:1001B00010206A0411241FBECFEFD8E0DEBFCDBFF0
:1001C00022E0A6E4B1E001C01D92AC34B207E1F731
:1001D00011E0A0E0B1E0E6E0F7E102C005900D9289
:1001E000A634B107D9F710E0CAEDD0E004C02197DA
:1001F000FE010E94760BC93DD107C9F70E94A904F0
:100200000C94810B0C940000E7E6F1E0A089B18921
:1002100082E08C93A485B5851C92A685B7858FEC6A
:100220008C93108EA489B58986E08C93A289B389BA
:100230008C9180618C93A289B3898C9188608C9316
:10024000A289B3898C9180688C930288F389E02D10
:1002500080818F7D8083089590E0FC01E256FE4FFF
:100260002491FC01E657FE4F8491882399F090E099
:10027000880F991FFC01E058FE4FA591B491FC0135
:10028000EA58FE4F859194918FB7F894EC91E22B48
:10029000EC938FBF0895CF92DF92EF92FF920F936E
:1002A0001F93CF93DF936C017A018B01C0E0D0E004
:1002B000CE15DF0589F0D8016D918D01D601ED9144
:1002C000FC910190F081E02DC6010995892B11F474
:1002D0007E0102C02196ECCFC701DF91CF911F9123
:1002E0000F91FF90EF90DF90CF900895089580E0F8
:1002F00090E00895FC01538D448D252F30E0842F2C
:1003000090E0821B930B541710F0CF96089501973D
:100310000895FC01918D828D981761F0828DDF0127
:10032000A80FB11D5D968C91928D9F5F9F73928FE8
:1003300090E008958FEF9FEF0895FC01918D828DDD
:10034000981731F0828DE80FF11D858D90E00895AA
:100350008FEF9FEF0895FC01918D228D892F90E002
:10036000805C9F4F821B91098F739927089587E6C0
:1003700091E00E94AB0121E0892B09F420E0822F5B
:100380000895FC01848DDF01A80FB11DA35ABF4F52
:100390002C91848D90E001968F739927848FA68984
:1003A000B7892C93A089B1898C9180648C93938DAB
:1003B000848D981306C00288F389E02D80818F7D9B
:1003C00080830895EF92FF920F931F93CF93DF9353
:1003D000EC0181E0888F9B8D8C8D981305C0E88996
:1003E000F989808185FD24C0F62E0B8D10E00F5F0A
:1003F0001F4F0F731127E02E8C8DE8120CC00FB623
:1004000007FCFACFE889F989808185FFF5CFCE0115
:100410000E94C101F1CF8B8DFE01E80FF11DE35A5F
:10042000FF4FF0820B8FEA89FB898081806207C0D1
:10043000EE89FF896083E889F989808180648083FF
:1004400081E090E0DF91CF911F910F91FF90EF90AD
:100450000895CF93DF93EC01888D8823C9F0EA8952
:10046000FB89808185FD05C0A889B9898C9186FDAD
:100470000FC00FB607FCF5CF808185FFF2CFA889AA
:10048000B9898C9185FFEDCFCE010E94C101E7CFE4
:10049000DF91CF91089580E090E0892B29F00E94B0
:1004A000B70181110C940000089590E0FC01EE5911
:1004B000FE4F3491FC01E256FE4F2491FC01E657B9
:1004C000FE4FE491EE2309F43BC0332339F133307E
:1004D00091F038F43130A9F0323001F584B58F7DD8
:1004E00012C0373091F03830A1F03430B9F4809137
:1004F00080008F7D03C0809180008F778093800083
:100500000DC084B58F7784BD09C08091B0008F770E
:1005100003C08091B0008F7D8093B000F0E0EE0FBB
:10052000FF1FEA58FE4FA591B4918FB7F894EC9154
:10053000611103C020952E2301C02E2B2C938FBF59
:1005400008953FB7F89480914D0190914E01A0918C
:100550004F01B091500126B5A89B05C02F3F19F05F
:100560000196A11DB11D3FBFBA2FA92F982F882733
:10057000820F911DA11DB11DBC01CD0142E0660F8E
:10058000771F881F991F4A95D1F708958F929F92E0
:10059000AF92BF92CF92DF92EF92FF926B017C01FC
:1005A0000E94A1024B015C01C114D104E104F104D9
:1005B000F1F00E94A102DC01CB0188199909AA0976
:1005C000BB09883E9340A105B10570F321E0C21A32
:1005D000D108E108F10888EE880E83E0981EA11C7E
:1005E000B11CC114D104E104F10419F7DDCFFF906F
:1005F000EF90DF90CF90BF90AF909F908F90089535
:100600002FB7F8946091490170914A0180914B0194
:1006100090914C012FBF08958F929F92AF92BF92FD
:10062000CF92DF92EF92FF926B017C010E94000358
:100630004B015C01C60ED71EE81EF91E0E94000386
:10064000681579058A059B0528F0C616D706E806C1
:10065000F906A0F7FF90EF90DF90CF90BF90AF909A
:100660009F908F90089560E086E00E94550264EFAD
:1006700071E080E090E00C94C6021F93CF93DF936B
:10068000182F8BE0869FE001879FD00D1124CC505E
:10069000DE4FD0934701C093460161E0812F0E9455
:1006A0005502C230D10538F0CC0FDD1FCC0FDD1F55
:1006B00025972197F1F760E0812F0E94550264E1B0
:1006C00070E080E090E0DF91CF911F910C94C60222
:1006D0000E947C0B6115710579F0FB0101900020EF
:1006E000E9F73197AF01461B570BDC01ED91FC9107
:1006F0000280F381E02D099480E090E008954F920C
:100700005F926F927F92EF92FF920F931F93CF931E
:10071000DF93CDB7DEB7A1970FB6F894DEBF0FBE5B
:10072000CDBF7C01FA01CB0119A2223008F42AE0E6
:100730008E010F5D1F4F422E512C612C712CBF0179
:10074000A30192010E942C0BF901CA010150110969
:100750006A3014F4605D01C0695CD8016C93232B8E
:10076000242B252B61F7B801C7010E946A03A196CB
:100770000FB6F894DEBF0FBECDBFDF91CF911F91B2
:100780000F91FF90EF907F906F905F904F90089542
:100790001F920F920FB60F9211242F933F934F93F6
:1007A0005F936F937F938F939F93AF93BF93EF93D9
:1007B000FF9387E691E00E94C101FF91EF91BF9105
:1007C000AF919F918F917F916F915F914F913F91E9
:1007D0002F910F900FBE0F901F9018951F920F92A0
:1007E0000FB60F9211242F938F939F93EF93FF9344
:1007F000E0917701F09178018081E0917D01F091A5
:100800007E0182FD12C09081809180018F5F8F7385
:1008100020918101821751F0E0918001F0E0E959C7
:10082000FE4F958F8093800101C08081FF91EF91F1
:100830009F918F912F910F900FBE0F901F90189541
:100840001F920F920FB60F9211242F933F938F9305
:100850009F93AF93BF938091490190914A01A091DA
:100860004B01B0914C013091480123E0230F2D370B
:1008700020F40196A11DB11D05C026E8230F0296A4
:10088000A11DB11D209348018093490190934A0115
:10089000A0934B01B0934C0180914D0190914E017A
:1008A000A0914F01B09150010196A11DB11D8093FF
:1008B0004D0190934E01A0934F01B0935001BF9111
:1008C000AF919F918F913F912F910F900FBE0F90FD
:1008D0001F901895E7E6F1E01382128288EE93E00C
:1008E000A0E0B0E084839583A683B78384E091E0A1
:1008F0009183808385EC90E09587848784EC90E0F9
:100900009787868780EC90E0918B808B81EC90E0DC
:10091000938B828B82EC90E0958B848B86EC90E0BD
:10092000978B868B118E128E138E148EE4E0F2E07C
:1009300016821782108611861286138614861586F3
:1009400016861786108A118A128A138A148A158AC3
:100950000895CF93DF93CDB7DEB72A970FB6F894FB
:10096000DEBF0FBECDBF789484B5826084BD84B5F0
:10097000816084BD85B5826085BD85B5816085BD9A
:1009800080916E00816080936E0010928100809152
:1009900081008260809381008091810081608093DA
:1009A0008100809180008160809380008091B100FF
:1009B00084608093B1008091B00081608093B0002A
:1009C00080917A00846080937A0080917A008260BE
:1009D00080937A0080917A00816080937A00809180
:1009E0007A00806880937A001092C10010924802C9
:1009F0001092490210924A0210924B021092060283
:100A000010920702109208021092090268EB7BE034
:100A100080E090E00E940C0387E691E0909347020B
:100A2000809346020E9404010E9400036093060224
:100A300070930702809308029093090262E171E0CB
:100A400080914602909147020E946A036AE070E03A
:100A500080E090E00E940C0381E080931A028CE019
:100A60000E942C0161E08CE00E94550289E00E9406
:100A70002C0186E00E942C0161E086E00E94550274
:100A800068EE73E080E090E00E94C6020E940401DC
:100A900068EE73E080E090E00E94C60288E00E9469
:100AA0002C010E94330384EF882E99249394A12C67
:100AB000B12C95E4392E2AE0E22EF12C34EBC32E32
:100AC000D12C0E940003672B682B692B41F40E94F4
:100AD0000003623071058105910508F40AC10E9486
:100AE00000036093630170936401809365019093A8
:100AF000660100915F0110916001209161013091C8
:100B00006201601771078207930740F460935F01E9
:100B100070936001809361019093620100915F0185
:100B20001091600120916101309162012B013C0123
:100B3000401A510A620A730A930182010A3F1105A1
:100B40002105310508F4D5C060935F017093600101
:100B5000809361019093620180921202909213023D
:100B6000A0921402B092150210921602109217026F
:100B7000109218021092190280910A0290910B02B1
:100B8000A0910C02B0910D0280930E0290930F027F
:100B9000A0931002B09311020E94000360930A0216
:100BA00070930B0280930C0290930D020E9400033D
:100BB00060930602709307028093080290930902E3
:100BC0000E9400032B013C0164E271E08091460227
:100BD000909147020E946A032AE041E050E060E001
:100BE00070E080914602909147020E947F036BE281
:100BF00071E080914602909147020E946A032AE0C8
:100C0000B301A20180914602909147020E947F03A6
:100C10006DE271E080914602909147020E946A0362
:100C200080910A0290910B02A0910C02B0910D02EA
:100C3000B301A201481B590B6A0B7B0B2AE0809180
:100C40004602909147020E947F036DE271E080911D
:100C50004602909147020E946A0340910A02509115
:100C60000B0260910C0270910D0280910E02909126
:100C70000F02A0911002B0911102481B590B6A0B90
:100C80007B0B2AE080914602909147020E947F03ED
:100C90006FE271E080914602909147020E946A03E0
:100CA0000E940003AB01BC012AE0809146029091B2
:100CB00047020E947F03009146021091470261E3C0
:100CC00071E0C8010E946A0361E271E0C8010E94FC
:100CD0006A0365E070E080E090E00E940C030E94EF
:100CE000000360930A0270930B0280930C029093AE
:100CF0000D0220915D0130915E0130927C00909157
:100D00007A00906490937A0080917A0086FDFCCFFF
:100D10009091780040917900892F90E0942B820F78
:100D2000931F90935E0180935D0120915B01309150
:100D30005C012F5F3F4F30935C0120935B012A30B1
:100D40003105F4F0B7010E944E0B8091590190914A
:100D50005A01680F791F70935A01609359011092DC
:100D60005E0110925D0110925C0110925B01809116
:100D70005701909158010196909358018093570123
:100D800080915701909158010A9714F110925801DF
:100D9000109257018091590190915A01B7010E9418
:100DA0004E0B8091550190915601680F791F7093F9
:100DB0005601609355018091530190915401019621
:100DC000909354018093530110925A01109259014B
:100DD00080915301909154010A9734F1809155010B
:100DE00090915601B7010E944E0B7093560160938B
:100DF0005501072E000C880B990B0E94330A2FE136
:100E000035E843EA5BE30E946E0A8E010F5F1F4FD5
:100E100024E047E00E94AB07109254011092530166
:100E2000109256011092550187E691E00E94AB01A5
:100E3000181619060CF086C087E691E00E94890119
:100E40008D369105F9F064F48B32910509F45DC09B
:100E50008D9709F077C0109252011092510137C05E
:100E60008837910569F18A37910509F06BC061E017
:100E700086E00E94550264EF71E080E090E00E94FD
:100E8000C60220C068E371E087E691E00E946A0331
:100E9000BE016F5F7F4F87E691E00E946A0361E2C7
:100EA00071E087E691E00E946A0364E670E080E00A
:100EB00090E00E94C60287E691E00E94290248C0A5
:100EC0000E94330364E670E080E090E03FC0009150
:100ED0005101109152010430110594F4B80189E0D8
:100EE00090E00E943D0362E070E080E090E00E94AC
:100EF000C6020F5F1F4F1093520100935101E7CFBD
:100F000064EF71E080E090E021C0D0925201C09285
:100F100051010091510110915201013B110584F3DF
:100F2000B80189E090E00E943D0362E070E080E05B
:100F300090E00E94C60201501109109352010093E3
:100F40005101E7CF62E070E080E090E00E94C602CD
:100F50000E944B02B6CDEF920F931F93CF93DF9376
:100F6000E80147FD02C034E001C034E1E42F440F42
:100F7000FF0BF7FF03C0F195E195F109E32E022F76
:100F80002E2FAE010E94CB07CE01DF91CF911F9192
:100F90000F91EF9008954F925F926F927F929F9280
:100FA000AF92BF92CF92DF92EF92FF920F931F9377
:100FB000CF93DF93CDB7DEB729970FB6F894DEBF96
:100FC0000FBECDBF6A01122FB02E2BE3201720F0E9
:100FD000FF24F394F00E02C0BCE3FB2E0F2D27E09C
:100FE000AE014F5F5F4F0E945909AC018981982F74
:100FF0009970913031F0E1FC06C0E0FE06C090E24D
:1010000005C09DE203C09BE201C090E0EE2DE071BF
:1010100083FF3CC0911102C083E001C084E08117CE
:1010200018F4212F281B01C020E0E1110BC0F601AC
:10103000822F30E2882319F031938150FBCFC20E0A
:10104000D11C20E0992329F0D6019C93F60131961A
:101050006F01C6010396E2FE0AC03EE4D6013C934E
:1010600041E411964C93119712963C9306C03EE6CC
:10107000F601308341E641833283FC01322F40E2A6
:10108000332309F442C041933150FACF82FF44C068
:10109000911102C083E001C084E0811718F4212F70
:1010A000281B01C020E0E1110BC0F601822F30E2C5
:1010B000882319F031938150FBCFC20ED11C20E060
:1010C000992329F0D6019C93F60131966F01C60150
:1010D0000396E2FE0BC039E4D6013C933EE4119640
:1010E0003C93119736E412963C9307C039E6F6011B
:1010F00030833EE6318336E63283FC01322F40E214
:10110000332319F041933150FBCFFC01E20FF11D65
:1011100010828EEF9FEFB7C0F1E0911101C0F0E0B7
:101120006F2F70E01416150624F49A012F5F3F4FBD
:1011300002C021E030E0260F371FBB2029F06B2DC5
:1011400070E06F5F7F4F02C060E070E0260F371FD6
:10115000612F70E0261737071CF4121B212F01C0E6
:1011600020E03E2D387159F4D601322F60E233234E
:1011700019F06D933150FBCFC20ED11C20E0FF233C
:1011800031F0D6019C93B6016F5F7F4F6B01E11187
:101190000BC0F601922F30E3992319F0319391504F
:1011A000FBCFC20ED11C20E09F2D940F3A81782FE7
:1011B0007071A72E84FF03C0313309F491501916C2
:1011C00024F4993018F098E001C091E0E42F852FC5
:1011D00057FF02C0E0E080E06E2F782FE0E0F0E003
:1011E000AEE29A2E3A01691A71082A01461A570A84
:1011F0000B2D10E01195019511096F3F8FEF7807C6
:1012000029F4D6019C92C60101966C014617570736
:1012100084F0661677066CF47F01E40CF51CA1E0FF
:10122000B0E0AC0FBD1FEA0EFB1ED7011196BC90BB
:1012300002C090E3B92E615071093196C601019642
:101240007C016017710724F0D601BC926C01D5CFE8
:101250006417750741F4363320F4353321F4A110B7
:1012600002C081E3B82EF601B082F701822F90E22E
:10127000882319F091938150FBCFF701E20FF11D04
:10128000108280E090E029960FB6F894DEBF0FBE82
:10129000CDBFDF91CF911F910F91FF90EF90DF9025
:1012A000CF90BF90AF909F907F906F905F904F9046
:1012B0000895283008F027E03327DA01990F311D0F
:1012C00087FD916000966105710539F432602E5FEB
:1012D0003D9330E32A95E1F708959F3F30F0803841
:1012E0007105610509F03C5F3C5F3D93913008F06A
:1012F0008068911DDF93CF931F930F93FF92EF921E
:10130000192F987F9695E92F96959695E90FFF27C7
:10131000EE53FF4F99273327EE24FF24A701E7015F
:1013200005900894079428F4360FE71EF81E491F0D
:10133000511D660F771F881F991F0694A1F705900E
:10134000079428F4E70EF81E491F561FC11D770F9A
:10135000881F991F661F0694A1F70590079428F42B
:10136000F80E491F561FC71FD11D880F991F661FF2
:10137000771F0694A1F70590079420F4490F561F94
:10138000C71FD81F990F661F771F881F0694A9F7DC
:1013900084911095177041F0D695C795579547954C
:1013A000F794E7941A95C1F7E8E6F0E06894159091
:1013B000159135916591959105907FE27395E118AE
:1013C000F10A430B560BC90BD009C0F7E10CF11E13
:1013D000431F561FC91FD01D7EF4703311F48A9528
:1013E000E6CFE894015030F0080F0AF40027021706
:1013F00008F4202F2395022F7A3328F079E37D9388
:101400002A95E9F710C07D932A9589F60694979559
:101410006795379517951794E118F10A430B560B0A
:10142000C90BD00998F023957E9173957A3308F013
:1014300070E37C932013B8F77E9170617D9330F058
:10144000839571E37D9370E32A95E1F71124EF9082
:10145000FF900F911F91CF91DF91992787FD909574
:101460000895E89409C097FB3EF490958095709597
:1014700061957F4F8F4F9F4F9923A9F0F92F96E9E0
:10148000BB279395F695879577956795B795F11155
:10149000F8CFFAF4BB0F11F460FF1BC06F5F7F4FF2
:1014A0008F4F9F4F16C0882311F096E911C0772304
:1014B00021F09EE8872F762F05C0662371F096E80D
:1014C000862F70E060E02AF09A95660F771F881FDC
:1014D000DAF7880F9695879597F908950E94810A03
:1014E0000C94F20A0E94E40A38F00E94EB0A20F001
:1014F000952311F00C94DB0A0C94E10A11240C944E
:10150000260B0E94030B70F3959FC1F3950F50E0DB
:10151000551F629FF001729FBB27F00DB11D639FA5
:10152000AA27F00DB11DAA1F649F6627B00DA11D4B
:10153000661F829F2227B00DA11D621F739FB00DF1
:10154000A11D621F839FA00D611D221F749F332761
:10155000A00D611D231F849F600D211D822F762FFA
:101560006A2F11249F5750409AF0F1F088234AF0D7
:10157000EE0FFF1FBB1F661F771F881F9150504043
:10158000A9F79E3F510580F00C94DB0A0C94260BC2
:101590005F3FE4F3983ED4F3869577956795B795CA
:1015A000F795E7959F5FC1F7FE2B880F911D9695E4
:1015B000879597F9089597F99F6780E870E060E054
:1015C00008959FEF80EC089500240A9416161706DC
:1015D00018060906089500240A9412161306140624
:1015E00005060895092E0394000C11F4882352F087
:1015F000BB0F40F4BF2B11F460FF04C06F5F7F4F3F
:101600008F4F9F4F089557FD9058440F551F59F025
:101610005F3F71F04795880F97FB991F61F09F3FDF
:1016200079F087950895121613061406551FF2CF08
:101630004695F1DF08C0161617061806991FF1CF58
:1016400086957105610508940895E894BB2766277F
:101650007727CB0197F90895A1E21A2EAA1BBB1B8D
:10166000FD010DC0AA1FBB1FEE1FFF1FA217B3076E
:10167000E407F50720F0A21BB30BE40BF50B661F84
:10168000771F881F991F1A9469F760957095809548
:1016900090959B01AC01BD01CF01089597FB072EEA
:1016A00016F4009407D077FD09D00E94620B07FC66
:1016B00005D03EF4909581959F4F08957095619562
:1016C0007F4F0895AA1BBB1B51E107C0AA1FBB1F78
:1016D000A617B70710F0A61BB70B881F991F5A95BE
:1016E000A9F780959095BC01CD010895EE0FFF1FDD
:1016F0000590F491E02D099481E090E0F8940C9429
:06170000810BF894FFCFFD
:1017060000000000E2014B017A012902AB018901C8
:101716009D01564D4450565F317C315F564D4450C5
:10172600560D0A00564D4450455F003A323A007C49
:10173600005F564D445045004C61737420617665D8
:06174600726167653D00C1
:107E0000112484B714BE81FFF0D085E080938100F7
:107E100082E08093C00088E18093C10086E0809377
:107E2000C20080E18093C4008EE0C9D0259A86E02C
:107E300020E33CEF91E0309385002093840096BBD3
:107E4000B09BFECF1D9AA8958150A9F7CC24DD24C4
:107E500088248394B5E0AB2EA1E19A2EF3E0BF2EE7
:107E6000A2D0813461F49FD0082FAFD0023811F036
:107E7000013811F484E001C083E08DD089C08234E0
:107E800011F484E103C0853419F485E0A6D080C0E4
:107E9000853579F488D0E82EFF2485D0082F10E0AE
:107EA000102F00270E291F29000F111F8ED06801E7
:107EB0006FC0863521F484E090D080E0DECF843638
:107EC00009F040C070D06FD0082F6DD080E0C81688
:107ED00080E7D80618F4F601B7BEE895C0E0D1E017
:107EE00062D089930C17E1F7F0E0CF16F0E7DF06D8
:107EF00018F0F601B7BEE89568D007B600FCFDCFD4
:107F0000A601A0E0B1E02C9130E011968C91119780
:107F100090E0982F8827822B932B1296FA010C0160
:107F200087BEE89511244E5F5F4FF1E0A038BF0790
:107F300051F7F601A7BEE89507B600FCFDCF97BE46
:107F4000E89526C08437B1F42ED02DD0F82E2BD052
:107F50003CD0F601EF2C8F010F5F1F4F84911BD097
:107F6000EA94F801C1F70894C11CD11CFA94CF0C13
:107F7000D11C0EC0853739F428D08EE10CD085E9AC
:107F80000AD08FE07ACF813511F488E018D01DD067
:107F900080E101D065CF982F8091C00085FFFCCF94
:107FA0009093C60008958091C00087FFFCCF809118
:107FB000C00084FD01C0A8958091C6000895E0E648
:107FC000F0E098E1908380830895EDDF803219F02E
:107FD00088E0F5DFFFCF84E1DECF1F93182FE3DFCA
:107FE0001150E9F7F2DF1F91089580E0E8DFEE27F6
:047FF000FF270994CA
:027FFE00040479
:0400000300007E007B
:00000001FF